{
  "contractName": "TokenBalanceReader",
  "abi": [
    {
      "inputs": [
        {
          "internalType": "address",
          "name": "_address",
          "type": "address"
        },
        {
          "internalType": "address[]",
          "name": "_tokens",
          "type": "address[]"
        }
      ],
      "name": "getBalances",
      "outputs": [
        {
          "internalType": "uint256[]",
          "name": "",
          "type": "uint256[]"
        }
      ],
      "stateMutability": "view",
      "type": "function"
    }
  ],
  "bytecode": "0x608060405234801561001057600080fd5b50610577806100206000396000f3fe608060405234801561001057600080fd5b506004361061002b5760003560e01c80636a385ae914610030575b600080fd5b61004a60048036038101906100459190610272565b610060565b604051610057919061039a565b60405180910390f35b606060008383905067ffffffffffffffff811115610081576100806103bc565b5b6040519080825280602002602001820160405280156100af5781602001602082028036833780820191505090505b50905060005b848490508110156101995760008585838181106100d5576100d46103eb565b5b90506020020160208101906100ea919061041a565b90508073ffffffffffffffffffffffffffffffffffffffff166370a08231886040518263ffffffff1660e01b81526004016101259190610456565b602060405180830381865afa158015610142573d6000803e3d6000fd5b505050506040513d601f19601f82011682018060405250810190610166919061049d565b838381518110610179576101786103eb565b5b602002602001018181525050508080610191906104f9565b9150506100b5565b50809150509392505050565b600080fd5b600080fd5b600073ffffffffffffffffffffffffffffffffffffffff82169050919050565b60006101da826101af565b9050919050565b6101ea816101cf565b81146101f557600080fd5b50565b600081359050610207816101e1565b92915050565b600080fd5b600080fd5b600080fd5b60008083601f8401126102325761023161020d565b5b8235905067ffffffffffffffff81111561024f5761024e610212565b5b60208301915083602082028301111561026b5761026a610217565b5b9250929050565b60008060006040848603121561028b5761028a6101a5565b5b6000610299868287016101f8565b935050602084013567ffffffffffffffff8111156102ba576102b96101aa565b5b6102c68682870161021c565b92509250509250925092565b600081519050919050565b600082825260208201905092915050565b6000819050602082019050919050565b6000819050919050565b610311816102fe565b82525050565b60006103238383610308565b60208301905092915050565b6000602082019050919050565b6000610347826102d2565b61035181856102dd565b935061035c836102ee565b8060005b8381101561038d5781516103748882610317565b975061037f8361032f565b925050600181019050610360565b5085935050505092915050565b600060208201905081810360008301526103b4818461033c565b905092915050565b7f4e487b7100000000000000000000000000000000000000000000000000000000600052604160045260246000fd5b7f4e487b7100000000000000000000000000000000000000000000000000000000600052603260045260246000fd5b6000602082840312156104305761042f6101a5565b5b600061043e848285016101f8565b91505092915050565b610450816101cf565b82525050565b600060208201905061046b6000830184610447565b92915050565b61047a816102fe565b811461048557600080fd5b50565b60008151905061049781610471565b92915050565b6000602082840312156104b3576104b26101a5565b5b60006104c184828501610488565b91505092915050565b7f4e487b7100000000000000000000000000000000000000000000000000000000600052601160045260246000fd5b6000610504826102fe565b91507fffffffffffffffffffffffffffffffffffffffffffffffffffffffffffffffff8203610536576105356104ca565b5b60018201905091905056fea2646970667358221220c2dd74e27c0babb600245c652a2d569cb5403b50df9aca4e969c5d6f80fd228c64736f6c63430008110033",
  "immutableReferences": {},
  "source": "// SPDX-License-Identifier: UNLICENSED\r\npragma solidity ^0.8.0;\r\n\r\ninterface IERC20Custom {\r\n    function balanceOf(address account) external view returns (uint256);\r\n}\r\n\r\ncontract TokenBalanceReader {\r\n    function getBalances(address _address, address[] calldata _tokens) external view returns (uint256[] memory) {\r\n        uint256[] memory balances = new uint256[](_tokens.length);\r\n        for (uint i = 0; i < _tokens.length; i++) {\r\n            IERC20Custom token = IERC20Custom(_tokens[i]);\r\n            balances[i] = token.balanceOf(_address);\r\n        }\r\n        return balances;\r\n    }\r\n}",
  "sourcePath": "C:\\Users\\ngsha\\Documents\\NUS Y2S2\\Intern\\problem5\\contracts\\TokenBalanceReader.sol",
  "compiler": {
    "name": "solc",
    "version": "0.8.17+commit.8df45f5f.Emscripten.clang"
  },
  "schemaVersion": "3.4.11",
  "updatedAt": "2023-02-18T07:27:38.317Z",
  "devdoc": {
    "kind": "dev",
    "methods": {},
    "version": 1
  },
  "userdoc": {
    "kind": "user",
    "methods": {},
    "version": 1
  }
}